{
  "contractName": "MIVIConsultation",
  "abi": [
    {
      "anonymous": false,
      "inputs": [
        {
          "indexed": true,
          "internalType": "address",
          "name": "patient",
          "type": "address"
        },
        {
          "indexed": false,
          "internalType": "uint256",
          "name": "timestamp",
          "type": "uint256"
        }
      ],
      "name": "ConsultationAdded",
      "type": "event"
    },
    {
      "inputs": [
        {
          "internalType": "string",
          "name": "_patientName",
          "type": "string"
        },
        {
          "internalType": "uint256",
          "name": "_age",
          "type": "uint256"
        },
        {
          "internalType": "string",
          "name": "_gender",
          "type": "string"
        },
        {
          "internalType": "string",
          "name": "_symptoms",
          "type": "string"
        },
        {
          "internalType": "string",
          "name": "_aiResponse",
          "type": "string"
        }
      ],
      "name": "addConsultation",
      "outputs": [],
      "stateMutability": "nonpayable",
      "type": "function"
    },
    {
      "inputs": [],
      "name": "getConsultations",
      "outputs": [
        {
          "components": [
            {
              "internalType": "string",
              "name": "patientName",
              "type": "string"
            },
            {
              "internalType": "uint256",
              "name": "age",
              "type": "uint256"
            },
            {
              "internalType": "string",
              "name": "gender",
              "type": "string"
            },
            {
              "internalType": "string",
              "name": "symptoms",
              "type": "string"
            },
            {
              "internalType": "string",
              "name": "aiResponse",
              "type": "string"
            },
            {
              "internalType": "uint256",
              "name": "timestamp",
              "type": "uint256"
            }
          ],
          "internalType": "struct MIVIConsultation.Consultation[]",
          "name": "",
          "type": "tuple[]"
        }
      ],
      "stateMutability": "view",
      "type": "function",
      "constant": true
    }
  ],
  "bytecode": "0x608060405234801561001057600080fd5b50610a87806100206000396000f3fe608060405234801561001057600080fd5b50600436106100365760003560e01c80631b01d1621461003b57806365e6d35814610059575b600080fd5b610043610075565b604051610050919061085a565b60405180910390f35b610073600480360381019061006e9190610605565b61036c565b005b60606000803373ffffffffffffffffffffffffffffffffffffffff1673ffffffffffffffffffffffffffffffffffffffff168152602001908152602001600020805480602002602001604051908101604052809291908181526020016000905b8282101561036357838290600052602060002090600602016040518060c001604052908160008201805461010890610999565b80601f016020809104026020016040519081016040528092919081815260200182805461013490610999565b80156101815780601f1061015657610100808354040283529160200191610181565b820191906000526020600020905b81548152906001019060200180831161016457829003601f168201915b50505050508152602001600182015481526020016002820180546101a490610999565b80601f01602080910402602001604051908101604052809291908181526020018280546101d090610999565b801561021d5780601f106101f25761010080835404028352916020019161021d565b820191906000526020600020905b81548152906001019060200180831161020057829003601f168201915b5050505050815260200160038201805461023690610999565b80601f016020809104026020016040519081016040528092919081815260200182805461026290610999565b80156102af5780601f10610284576101008083540402835291602001916102af565b820191906000526020600020905b81548152906001019060200180831161029257829003601f168201915b505050505081526020016004820180546102c890610999565b80601f01602080910402602001604051908101604052809291908181526020018280546102f490610999565b80156103415780601f1061031657610100808354040283529160200191610341565b820191906000526020600020905b81548152906001019060200180831161032457829003601f168201915b50505050508152602001600582015481525050815260200190600101906100d5565b50505050905090565b60006040518060c001604052808781526020018681526020018581526020018481526020018381526020014281525090506000803373ffffffffffffffffffffffffffffffffffffffff1673ffffffffffffffffffffffffffffffffffffffff16815260200190815260200160002081908060018154018082558091505060019003906000526020600020906006020160009091909190915060008201518160000190805190602001906104219291906104e5565b506020820151816001015560408201518160020190805190602001906104489291906104e5565b5060608201518160030190805190602001906104659291906104e5565b5060808201518160040190805190602001906104829291906104e5565b5060a0820151816005015550503373ffffffffffffffffffffffffffffffffffffffff167f40c17afedf54b000146c4b6dc8217844c746849f3a9f83fa2de4c20167396787426040516104d5919061087c565b60405180910390a2505050505050565b8280546104f190610999565b90600052602060002090601f016020900481019282610513576000855561055a565b82601f1061052c57805160ff191683800117855561055a565b8280016001018555821561055a579182015b8281111561055957825182559160200191906001019061053e565b5b509050610567919061056b565b5090565b5b8082111561058457600081600090555060010161056c565b5090565b600061059b610596846108c8565b610897565b9050828152602081018484840111156105b357600080fd5b6105be848285610957565b509392505050565b600082601f8301126105d757600080fd5b81356105e7848260208601610588565b91505092915050565b6000813590506105ff81610a3a565b92915050565b600080600080600060a0868803121561061d57600080fd5b600086013567ffffffffffffffff81111561063757600080fd5b610643888289016105c6565b9550506020610654888289016105f0565b945050604086013567ffffffffffffffff81111561067157600080fd5b61067d888289016105c6565b935050606086013567ffffffffffffffff81111561069a57600080fd5b6106a6888289016105c6565b925050608086013567ffffffffffffffff8111156106c357600080fd5b6106cf888289016105c6565b9150509295509295909350565b60006106e8838361079e565b905092915050565b60006106fb82610908565b610705818561092b565b935083602082028501610717856108f8565b8060005b85811015610753578484038952815161073485826106dc565b945061073f8361091e565b925060208a0199505060018101905061071b565b50829750879550505050505092915050565b600061077082610913565b61077a818561093c565b935061078a818560208601610966565b61079381610a29565b840191505092915050565b600060c08301600083015184820360008601526107bb8282610765565b91505060208301516107d0602086018261083c565b50604083015184820360408601526107e88282610765565b915050606083015184820360608601526108028282610765565b9150506080830151848203608086015261081c8282610765565b91505060a083015161083160a086018261083c565b508091505092915050565b6108458161094d565b82525050565b6108548161094d565b82525050565b6000602082019050818103600083015261087481846106f0565b905092915050565b6000602082019050610891600083018461084b565b92915050565b6000604051905081810181811067ffffffffffffffff821117156108be576108bd6109fa565b5b8060405250919050565b600067ffffffffffffffff8211156108e3576108e26109fa565b5b601f19601f8301169050602081019050919050565b6000819050602082019050919050565b600081519050919050565b600081519050919050565b6000602082019050919050565b600082825260208201905092915050565b600082825260208201905092915050565b6000819050919050565b82818337600083830152505050565b60005b83811015610984578082015181840152602081019050610969565b83811115610993576000848401525b50505050565b600060028204905060018216806109b157607f821691505b602082108114156109c5576109c46109cb565b5b50919050565b7f4e487b7100000000000000000000000000000000000000000000000000000000600052602260045260246000fd5b7f4e487b7100000000000000000000000000000000000000000000000000000000600052604160045260246000fd5b6000601f19601f8301169050919050565b610a438161094d565b8114610a4e57600080fd5b5056fea26469706673582212208b335762152d6e54c9a9f865f2bec60353096c53253c00276e1d85322f8600a164736f6c63430008000033",
  "immutableReferences": {},
  "source": "pragma solidity ^0.8.0;\r\n\r\ncontract MIVIConsultation {\r\n    struct Consultation {\r\n        string patientName;\r\n        uint256 age;\r\n        string gender;\r\n        string symptoms;\r\n        string aiResponse;\r\n        uint256 timestamp;\r\n    }\r\n    \r\n    mapping(address => Consultation[]) private patientConsultations;\r\n    \r\n    event ConsultationAdded(address indexed patient, uint256 timestamp);\r\n    \r\n    function addConsultation(\r\n        string memory _patientName,\r\n        uint256 _age,\r\n        string memory _gender,\r\n        string memory _symptoms,\r\n        string memory _aiResponse\r\n    ) public {\r\n        Consultation memory newConsultation = Consultation({\r\n            patientName: _patientName,\r\n            age: _age,\r\n            gender: _gender,\r\n            symptoms: _symptoms,\r\n            aiResponse: _aiResponse,\r\n            timestamp: block.timestamp\r\n        });\r\n        \r\n        patientConsultations[msg.sender].push(newConsultation);\r\n        emit ConsultationAdded(msg.sender, block.timestamp);\r\n    }\r\n    \r\n    function getConsultations() public view returns (Consultation[] memory) {\r\n        return patientConsultations[msg.sender];\r\n    }\r\n}",
  "sourcePath": "C:\\Team-MIVI\\mivi-blockchain\\contracts\\MIVIConsultation.sol",
  "compiler": {
    "name": "solc",
    "version": "0.8.0+commit.c7dfd78e.Emscripten.clang"
  },
  "schemaVersion": "3.4.16",
  "updatedAt": "2024-10-19T17:04:34.743Z",
  "networkType": "ethereum",
  "devdoc": {
    "kind": "dev",
    "methods": {},
    "version": 1
  },
  "userdoc": {
    "kind": "user",
    "methods": {},
    "version": 1
  }
}